:020000040800F2
:1000000058040020210B00080D0B00080F0B0008FE
:10001000110B0008130B0008150B0008000000006E
:10002000000000000000000000000000170B0008A6
:10003000190B0008000000001B0B00081D0B000836
:10004000610B0008650B0008690B00086D0B0008C8
:10005000710B0008750B0008790B00087D0B000878
:10006000810B0008850B0008890B00088D0B000828
:10007000910B0008950B0008990B00089D0B0008D8
:10008000A10B0008A50B0008A90B0008AD0B000888
:10009000B10B0008B50B0008B90B0008BD0B000838
:1000A000C10B0008C50B0008C90B0008CD0B0008E8
:1000B000D10B0008D50B0008D90B0008DD0B000898
:1000C000E10B0008E50B0008E90B0008ED0B000848
:1000D000F10B000845070008F90B0008FD0B0008AC
:1000E000010C0008050C0008090C000870B586B06A
:1000F00004000D0000200020002100210026A88916
:1001000000282600208A4CF6FF710840E988084341
:100110002082A0894EF6F3110840A9882A8911434C
:100120006A8911430843A081A08A4FF6FF41084025
:10013000A9890843A082684600F0BCF81A488642A4
:1001400001D1039800E00298A189090406D519217C
:10015000484329684900B0FBF1F105E01921484303
:1001600029688900B0FBF1F16420B1FBF0F00001D7
:100170000209642303FB1211A289120408D5C900E5
:1001800032316422B1FBF2F111F00701084307E0BC
:10019000090132316422B1FBF2F111F00F01084381
:1001A000208106B070BD000000380140C9B20029AE
:1001B00004D0818951F40051818104E081894DF698
:1001C000FF7211408181704730B400230024002465
:1001D000002589B240F66A13994205000800C0B2B2
:1001E0004309DBB289B211F01F04012010FA04F4B4
:1001F000012B01D10C3504E0022B01D1103500E0B8
:100200001435D2B2002A03D028682043286002E0C7
:100210002868A043286030BC7047C905C90D81809B
:1002200070478088C005C00D7047002289B2B1F5C3
:10023000007F0088084201D0012200E00022100067
:10024000C0B2704789B28A0589B2C943018070473C
:1002500010B4002200230022002289B240F66A1264
:1002600091420A00D2B25209D2B289B211F01F03F0
:10027000012414FA03F3012A02D18289134006E013
:10028000022A02D1028A134001E0828A134089B215
:100290000A0A92B2012111FA02F200880240002BF0
:1002A00003D0002A01D0012200E000221000C0B2D9
:1002B00010BC704700210021002200213449096848
:1002C00011F00C01002904D0042905D0082906D01A
:1002D00021E03049016020E02E4901601DE02C49F9
:1002E000096811F470112A4A126812F48032890CDC
:1002F000891C002A03D1284A514301600AE0244A9C
:100300001268920303D5244A5143016002E0214A56
:100310005143016001E01F4901601D49096811F066
:10032000F00109091D4A515C0268CA40426018493F
:10033000096811F4E061090A184A515C4268CA4030
:1003400082601349096811F46051C90A134A515C6B
:100350004268CA40C2600E49096811F44041890BE5
:100360000F4A515CC268B2FBF1F101617047C9B23A
:10037000002905D00B49096808430A49086005E0CF
:100380000849096831EA0000064908607047000022
:100390000410024000127A0000093D000000002015
:1003A000100000201810024080B54E48006850F040
:1003B00001004C4908604C4800684C4908404A49D3
:1003C0000860484800684A4908404649086045486E
:1003D000006830F48020434908604348006830F4E6
:1003E000FE00414908605FF41F004249086000F0C8
:1003F00005F85FF000604049086001BD80B500F07D
:1004000001F801BD82B00020019000200090354825
:10041000006850F48030334908603248006810F4B6
:10042000003000900198401C01900098002803D1F2
:100430000198B0F5A06FF0D12A480068800302D57A
:100440000120009001E0002000900098012847D191
:100450002A48006850F010002849086027480068C2
:1004600080088000254908602448006850F0020098
:10047000224908601C4800681B4908601A48006847
:10048000194908601848006850F4806016490860EF
:100490001548006830F47C10134908601248006861
:1004A00050F4E810104908600E48006850F0807061
:1004B0000C4908600B4800688001FBD50A480068B9
:1004C00080088000084908600748006850F0020072
:1004D000054908600448006810F00C000828F9D1AC
:1004E00002B0704700100240041002400000FFF804
:1004F000FFFFF6FE0810024008ED00E00020024079
:1005000070B504461E000846154604D015F8011BB8
:10051000A047761EFAD170BD2DE9F04683B0824621
:10052000894614461F4607E00123224649465046A5
:10053000FFF7E6FF8146641C2078010003D100200C
:1005400003B0BDE8F0862528EED16078A41C2528EC
:10055000014618D058285CD063280ED0642818BFF4
:10056000692814D06F2854D0702858D073285DD0D3
:10057000752818BF78284CD0DEE73868386050F806
:10058000041B3860C9B24846D0478146D4E7386872
:10059000386050F8045B3860002D03D52D214846A3
:1005A000D047814664206F2808BF082205D040F05C
:1005B0002001782914BF0A2210220B216428AC469E
:1005C00003D1002D48BFCCF1000CBCFBF2F502FBBF
:1005D00015CC0CF130065FFA86FC4B1EBCF13A0FCD
:1005E000A4BFA0F15106B4440DF803C019465FEA58
:1005F000050C01D00129E8DA4846D1F10B090DEBD1
:100600000105C2D015F8011BD047B9F10109F9D194
:10061000BBE73968396051F8045B3960C3E7386873
:10062000386050F8045B38607820BCE73868386080
:1006300050F8045B3860284600F00AF80600484687
:10064000A3D015F8011BD047761EFAD19DE7000014
:1006500000F10103810704D010F8011B89B1810763
:10066000FAD10268B2F10131914311F0803F04BF29
:1006700050F8042FF6E710F8011B11B110F8011B18
:10068000FBE7C01A7047000000B585B0012144F2B5
:100690000400FFF76CFE4FF40070ADF80000182066
:1006A0008DF8030003208DF802006946344800F0FD
:1006B0006DF84FF48060ADF8000004208DF8030061
:1006C00003208DF8020069462D4800F05FF84FF4D2
:1006D000165001900020ADF808000020ADF80A0087
:1006E0000020ADF80C000020ADF810000C20ADF893
:1006F0000E0001A92348FFF7F9FC40212148FFF72C
:10070000A1FD012240F225511E48FFF75DFD0121A8
:100710001C48FFF74BFD05B000BD80B54FF4E0600D
:1007200000F094F825208DF8000001208DF80100DC
:1007300000208DF8020001208DF80300684600F0CB
:100740008AF801BD80B540F225510E48FFF780FDC3
:10075000002804D00B48FFF764FD0B49088001BD59
:1007600010B504002100C9B289B20648FFF755FD53
:1007700040210448FFF759FD0028F9D0200010BDA2
:1007800000080140003801400438014070B40022E4
:1007900000250023002600240025CA7812F00F024D
:1007A000CB78DB0601D58B781A430B781B0621D05A
:1007B0000468002306E0CD78482D02D101259D4034
:1007C00005615B1C082B14D2012515FA03F60D8870
:1007D0003540B542F5D19E000F25B540AC4312FA25
:1007E00006F52C43CD78282DE5D101259D404561A6
:1007F000E7E704600B88FF2B26DD4468002320E038
:10080000012513F1080615FA06F60D883540B542A4
:1008100016D19E000F25B540AC4312FA06F52C43C5
:10082000CD78282D04D1012513F10806B540456186
:10083000CD78482D04D1012513F10806B540056196
:100840005B1C082BDCD3446070BC7047194908431B
:10085000194908607047002100220F23C178002940
:100860001DD01549096811F4E061D1F5E061090A6C
:10087000D1F10402CB404178914082781A40114373
:1008800009010E4A0378D1540121027812F01F02A7
:1008900091400B4A0078401142F8201009E00121F4
:1008A000027812F01F029140064A0078401142F887
:1008B000201070470000FA050CED00E000E400E0B5
:1008C00000E100E080E100E02A2A2A2A2A2A2A2AD6
:1008D0002A2A2A2A2A2A2A2A2A2A2A2A2A2A2A2A78
:1008E0002A2A2A2A2A2A2A2A2A2A2A2A2A2A2A2A68
:1008F0002A2A2A2A2A2A2A2A2A2A2A2A2A2A2A2A58
:100900002A2A2A2A2A0D0A002A20202020202020F4
:1009100020202020202020202020202020202020D7
:1009200020202020202020202020202020202020C7
:1009300020202020202020202020202020202020B7
:10094000202020202A0D0A002A205468616E6B2086
:10095000796F7520666F72207573696E67205468B1
:100960006520446576656C6F706D656E7420426FAE
:10097000617264204F66205975616E4469202120A0
:100980005E5F5E202A0D0A0019E050F8041BCB07B9
:1009900044BFA9F101035918121F0023042A41F88A
:1009A000043BF9D25FEA827C0B4604D54FF0000C81
:1009B000A1F800C09B1CD10744BF0021197050F85A
:1009C000042B002AE1D1704780B5FFF75DFEFFF7E9
:1009D000A4FE084800F014F8074800F011F8074892
:1009E00000F00EF8044800F00BF8024800F008F898
:1009F000FEE700BFC8080008080900084809000809
:100A00000EB400B582B003A9009102466B460121E5
:100A1000034878440A30FFF77FFD06BC5DF810FB01
:100A2000C900000030B5016842688468014401EBE8
:100A30005203D20748BF4C44994201D10C3030BD1B
:100A400011F9012B11F8015B002A04F8015B02D5B2
:100A5000521CF9D1F0E7521EF4D5EDE710B5074965
:100A600079441831064C7C44163404E00A68081DA9
:100A7000114488470146A142F8D110BD080000008A
:100A80002400000005FFFFFF500000005804002074
:100A90000000000091FFFFFF740100006A000000E9
:100AA0000000002000F00BF8002801D0FFF7D6FF6F
:100AB0000020C046C046FFF787FF00F002F8012083
:100AC000704700F001B800000746384600F002F811
:100AD000FBE7000080B5C046C046024A110018205E
:100AE000ABBEFBE72600020038B504460D4628469B
:100AF00000F006F8A84218BF0024204632BD0000CE
:100B00000149FFF72DBE00BF140000207047FEE72B
:100B1000FEE7FEE7FEE7704770477047704700004A
:100B20000148804701480047A9030008310B00082D
:100B3000C046C046C046C046FFF7B4FFFFF7E6BF59
:100B4000FFF7E5BFFFF7E4BFFFF7E3BFFFF7E2BF43
:100B5000FFF7E1BFFFF7E0BFFFF7DFBFFFF7DEBF43
:100B6000FFF7FEBFFFF7FEBFFFF7FEBFFFF7FEBFB9
:100B7000FFF7FEBFFFF7FEBFFFF7FEBFFFF7FEBFA9
:100B8000FFF7FEBFFFF7FEBFFFF7FEBFFFF7FEBF99
:100B9000FFF7FEBFFFF7FEBFFFF7FEBFFFF7FEBF89
:100BA000FFF7FEBFFFF7FEBFFFF7FEBFFFF7FEBF79
:100BB000FFF7FEBFFFF7FEBFFFF7FEBFFFF7FEBF69
:100BC000FFF7FEBFFFF7FEBFFFF7FEBFFFF7FEBF59
:100BD000FFF7FEBFFFF7FEBFFFF7FEBFFFF7FEBF49
:100BE000FFF7FEBFFFF7FEBFFFF7FEBFFFF7FEBF39
:100BF000FFF7FEBFFFF7A6BDFFF7FEBFFFF7FEBF83
:100C0000FFF7FEBFFFF7FEBFFFF7FEBFFC002F019F
:100C1000020304010203040607080902040608028D
:100C200004010158040020A80400205804002058A2
:100C3000040020580400205100002038000020E06B
:010C400000B3
:0400000508000B31B3
:00000001FF
